:060000000A128A11122809
:10000800FE00030EF9000408FA000A08FB00831238
:1000180003137F08FC000A128A1104290A128A11A4
:10002800892B8312031358085704031D0800FF3057
:100038000A128A11DE230A128A11FF300A128A1163
:10004800DE230A128A11831203136D080A128A1119
:10005800DE230A128A11831203136E080A128A1108
:10006800DE230A128A11831203136F080A128A11F7
:10007800DE230A128A118312031359080A128A11FD
:10008800DE230A128A11831203135B080A128A11EB
:10009800DE230A128A11831203135A080A128A11DC
:1000A800DE230A128A11831203135D080A128A11C9
:1000B800DE230A128A11831203135C080A128A11BA
:1000C800DE230A128A11831203135F080A128A11A7
:1000D800DE230A128A11831203135E080A128A1198
:1000E800DE230A128A118312031361080A128A1185
:1000F800DE230A128A118312031360080A128A1176
:10010800DE230A128A118312031320080A128A11A5
:10011800DE230A128A118312031321080A128A1194
:10012800DE23303083120313D7007530D80008005F
:100138008312031327082604031DF7288830A60016
:100148001330A700E1280A128A110A240A128A1118
:1001580083120313E8006808E9006908F03A031DF0
:10016800B828AD01AD0AE12869080F3A031DE12856
:100178000230E8006808AD00E128AE01AE0A103090
:10018800A4002730A5000A128A110A240A128A112B
:10019800831203138600E0280A128A110A240A121D
:1001A8008A11013A031DDD2883120313AF01AF0A38
:1001B800E02883120313AF01AD010A128A116524E6
:1001C8000A128A1100380319F728831203132D081D
:1001D800003A0319A728013A0319C128033A031959
:1001E800D028E128E128831203132E08013A031DC1
:1001F800080025082404031D0800AE018601080034
:100208000A128A11D4210A128A110A128A111A248E
:100218000A128A110B1D3F290B118230F800780849
:1002280083120313810723082204031921290130AB
:10023800A2020030031CA303A302580857040319A1
:100248002B290130D7020030031CD803D802270815
:100258002604031935290130A6020030031CA70320
:10026800A7022508240403193F290130A4020030FD
:10027800031CA503A5027C0883120313FF007B0857
:100288008A007A088400790E8300FE0E7E0E09002B
:100298009630831203132C0203187A290A128A1142
:1002A80076240A128A11003A031908000A128A11E0
:1002B80029240A128A11831203136308EC01EC073C
:1002C8006208EB01EB076C082902031D6D296B0816
:1002D8002802031875296C08A901A9076B08A80149
:1002E800A8070130EA006A08AC0708000630E200F7
:1002F8000030E3002908E501E5072808E401E407E0
:100308000A128A111522831203136208EA006A0886
:10031800ED00A801A901AC0108008312031323080A
:100328002204031D0800C429D030A2000730A3000E
:100338000814AB01AB0A080008102F080319AD29EF
:10034800D030A2000730A3000230E2006208AB0000
:1003580008001030A2002730A300AB010800D030FD
:10036800A2000730A30008140330E2006208AB00C3
:1003780008001030A2002730A3000810AB010800C5
:100388002B08003A03199829013A0319A029033ABE
:100398000319B329013A0319BD29D3290800080014
:1003A800831203130C1EF12983160313981CF129D9
:1003B800831203130C1244300A128A115B240A12A6
:1003C8008A110038031DF12944300A128A111823B2
:1003D8000A128A1183120313990083120313981CBB
:1003E800FF291A08F6007608F7001A08F6007608BA
:1003F800F700181218168C1E080031300A128A11DC
:1004080050240A128A110038031D080083120313AE
:100418001A08F6007608F00031300A128A114223D1
:10042800080083120313E701E80163086204031953
:100438004E2AE901E90AE31B2D2A01300310E20DD7
:10044800E30DFF3E031D222A0130E6006608E90796
:100458001F2A01300310E70DE80DFF3E031D2E2A69
:1004680063086502031D3A2A62086402031C432AD2
:100478006208E4026308031CE503E502671401301F
:100488000310E30CE20CFF3E031D442A0130E9028D
:10049800031D2D2A6808E301E3076708E201E20764
:1004A800080083160313860183120313860183163B
:1004B8000313880183120313880183160313810130
:1004C8008230831203138100E0308B000A300A1255
:1004D8008A1194220A128A1183120313E201FF304F
:1004E8000A128A11A7230A128A1100300A128A11E5
:1004F800F5230C3083120313E5006508D900323068
:10050800DA000030DB002230DC000030DD00DE01E4
:10051800DF01E001E1012030D7004E30D8000800AB
:1005280083120313E20024308316031398009030DB
:10053800831203139800A92A4030A52A6730A52AF8
:100548008130831603139900B52A831262080A3A88
:100558000319A02A1A3A0319A22A043A0319A42A49
:10056800B52A831603138C1683120313D401D501FD
:10057800D601C101C201C301990108008312031306
:10058800E7006708103E8400831300086707E2004D
:10059800620884000008E300E4016308E5006408D9
:1005A800E6000130E2006708103E84006208800718
:1005B8006708103E84000008103A031DE72A670800
:1005C800103E840080016708123E840001308002DA
:1005D8006508080083120313E5006208E300650854
:1005E800113E8400831300086507E4006408840052
:1005F800630880000130E3006508113E8400630849
:1006080080070130E3006508123E84006308800714
:100618006508113E84000008103A031D08006508AB
:10062800113E840080010800F5007508103E840022
:10063800831300087507F000700884000008F100B3
:10064800F2017108F3007208F4000130F000750837
:10065800103E8400700880077508103E840000086A
:10066800103A031D3B2B7508103E84008001750865
:10067800123E84000130800273080800F3007008FD
:10068800F1007308113E8400831300087307F20019
:1006980072088400710880000130F1007308113E6F
:1006A8008400710880070130F1007308123E84004D
:1006B800710880077308113E84000008103A031D72
:1006C80008007308113E8400800108000A128A118C
:1006D80055220A128A110A128A1191210A128A11C4
:1006E8000A128A1115200A128A110A128A119C20EC
:1006F8000A128A110A128A11C5230A128A110A12C9
:100708008A114C210A128A116F2BFD0183132030A4
:10071800840057300A128A116E240A128A110A12AA
:100728008A117A240A128A11ED000A128A117B248E
:100738000A128A11EE000A128A117C24EF00830142
:100748000A128A116A2B83120313E40064088316C1
:10075800031385008130831203139F0080308316B2
:1007680003139F00831203136208E30063088316D0
:1007780003139F04831203130C13831603130C171C
:100788000800D32BFD08031D0800FD01FD0A831294
:100798000313AA01AA0A08001F15AA010800831258
:1007A80003132A08003A0319C62B013A0319D02B60
:1007B800DD2B080083120313E70044300A128A1164
:1007C80037240A128A110038031D08008312031304
:1007D8006708E6006608E20044300A128A11EE2231
:1007E800080083120313E400C730E20062089F0583
:1007F8006408E20002300310E20DFF3E031DFF2BE8
:100808000310620DE30063089F04080031300A12E8
:100818008A1144240A128A110038031D182C313019
:100828000A128A11C2220800003008000B1D212C70
:100838007D080319212C0130FD02831203130C1FBC
:100848000800B001B00A0C13080083120313B001AA
:100858001E08E301E307831603131E08831203131C
:10086800E201E207080083120313E2006208123E65
:10087800840083130008103A00300319013008007F
:1008880083120313E2006208123E84008313800877
:100898000030031901300800F0007008123E84008F
:1008A80083130008103A0030031901300800F000E3
:1008B8007008123E84008313800800300319013049
:1008C800080031300A128A114424003A0030031912
:1008D8000130080064008001840A0406031900340A
:1008E80004066F2C83120313300808007B347A3413
:0208F8000034CA
:02400E007AFF37
:00000001FF
