:060000000A128A11122809
:10000800FE00030EF8000408F9000A08FA0083123B
:1000180003137F08FB000A128A1115280A128A1195
:1000280085290B1D44280B118230F70077088107BA
:1000380025082404031926280130A4020030031CD3
:10004800A503A50223082204031930280130A202BF
:100058000030031CA303A3024D084C0403193A28DB
:100068000130CC020030031CCD03CD027D087C0496
:10007800031944280130FC020030031CFD03FD0273
:100088000A128A1156200A128A117B088312031356
:10009800FF007A088A0079088400780E8300FE0E33
:1000A8007E0E0900831203130C1E73288316031394
:1000B800981C7328831203130C1239300A128A1100
:1000C800AF210A128A110038031D732839300A1229
:1000D8008A1133210A128A11831203139900831299
:1000E80003138C1E080008080139F6000130F606D3
:1000F80008087606FE397606880026300A128A1124
:10010800A4210A128A110038031D08008312031360
:100118001A08F6007608F00026300A128A115D21C6
:1001280008000A128A11D0200A128A1183120313B6
:10013800DB01250824040319C1289D280614E8308A
:10014800A4000330A500DB01DB0A9D28061030302F
:10015800A4007530A5000230B7288614E830A40042
:100168000330A5000330DA005A08DB009D2886100A
:100178003030A4007530A5009C285B08003A0319AC
:10018800A228013A0319AA28033A0319B128013A07
:100198000319BB289D289D28831603138601831203
:1001A800031386018316031388018312031388013E
:1001B8008316031381018230831203138100E03018
:1001C8008B000A30D7000030D8000A128A110321A8
:1001D8000C3083120313D9005908CE003230CF00F7
:1001E8000030D0002230D1000030D200D301D40139
:1001F800D501D6012030CC004E30CD000800263085
:10020800831603139800903083120313980015295E
:100218004030112967301129813083160313990062
:10022800262983125808003A03191B29262957083A
:100238000A3A03190C291A3A03190E29043A031920
:1002480010292629831603138C1683120313C90158
:10025800CA01CB01B601B701B80199010800F50040
:100268007508103E8400831300087507F0007008B5
:1002780084000008F100F2017108F3007208F4002C
:100288000130F0007508103E84007008800775087A
:10029800103E84000008103A031D56297508103EC8
:1002A800840080017508123E8400013080027308C2
:1002B8000800F3007008F1007308113E84008313EE
:1002C80000087307F200720884007108800001308A
:1002D800F1007308113E8400710880070130F100B5
:1002E8007308123E8400710880077308113E840069
:1002F8000008103A031D08007308113E84008001AD
:100308000800FC01FD018313203084004C300A12E0
:100318008A11B9210A128A110A128A11C1210A12F4
:100328008A11DC000A128A11C2210A128A11DD0020
:100338000A128A11C321DE0083010A128A11952844
:10034800F0007008123E840083130008103A003051
:10035800031901300800F0007008123E840083136E
:100368008008003003190130080064008001840A05
:100378000406031900340406BA297B347A3400349D
:02400E007AFF37
:00000001FF
