:060000000A128A11122809
:10000800FE00030EF9000408FA000A08FB00831238
:1000180003137F08FC000A128A11E3280A128A11C6
:100028006B2A8312031350084F04031D0800FF3086
:100038000A128A11A3220A128A11FF300A128A119F
:10004800A3220A128A118312031361080A128A1161
:10005800A3220A128A118312031362080A128A1150
:10006800A3220A128A118312031363080A128A113F
:10007800A3220A128A118312031351080A128A1141
:10008800A3220A128A118312031353080A128A112F
:10009800A3220A128A118312031352080A128A1120
:1000A800A3220A128A118312031355080A128A110D
:1000B800A3220A128A118312031354080A128A11FE
:1000C800A3220A128A118312031357080A128A11EB
:1000D800A3220A128A118312031356080A128A11DC
:1000E800A3220A128A118312031359080A128A11C9
:1000F800A3220A128A118312031358080A128A11BA
:10010800A3220A128A118312031320080A128A11E1
:10011800A3220A128A118312031321080A128A11D0
:10012800A322303083120313CF007530D0000800AB
:100138008312031327082604031DD6288830A60037
:100148001330A7000A128A11F8220A128A110038FD
:100158000319D6280A128A11BA220A128A11F03A09
:10016800031DA6288312031308080139E000013093
:10017800E00608086006FE3960068800A801A80A9B
:10018800D030A4000730A5000A128A11BA220A1238
:100198008A118312031386000A128A1109230A128C
:1001A8008A11A628831203132808013A031D0800A0
:1001B80025082404031D0800A801860108000B1D5A
:1001C80012290B118230F8007808810723082204CD
:1001D8000319F4280130A2020030031CA303A30270
:1001E80050084F040319FE280130CF020030031CC9
:1001F800D003D00227082604031908290130A602D3
:100208000030031CA703A702250824040319122998
:100218000130A4020030031CA503A5020A128A11AA
:1002280024210A128A117C0883120313FF007B0819
:100238008A007A088400790E8300FE0E7E0E09007B
:10024800831203130C1E412983160313981C41299A
:10025800831203130C123C300A128A11EE220A127E
:100268008A110038031D41293C300A128A111922CB
:100278000A128A1183120313990083120313981C1C
:100288004F291A08F6007608F7001A08F6007608CB
:10029800F700181218168C1E080029300A128A1145
:1002A800E3220A128A110038031D0800831203137F
:1002B8001A08F6007608F00029300A128A1143223B
:1002C800080083160313860183120313860183161D
:1002D8000313880183120313880183160313810112
:1002E8008230831203138100E0308B000A300A1237
:1002F8008A1195210C3083120313DB005B08D100AF
:100308003230D2000030D3002230D4000030D50083
:10031800D601D701D801D9012030CF004E30D00006
:10032800080083120313DA0024308316031398009D
:100338009030831203139800AA294030A629673009
:10034800A6298130831603139900B62983125A0807
:100358000A3A0319A1291A3A0319A329043A0319D5
:10036800A529B629831603138C1683120313CC010F
:10037800CD01CE01B901BA01BB0199010800831270
:100388000313DF005F08103E8400831300085F0733
:10039800DA005A0884000008DB00DC015B08DD0095
:1003A8005C08DE000130DA005F08103E84005A085D
:1003B80080075F08103E84000008103A031DE829F2
:1003C8005F08103E840080015F08123E84000130FF
:1003D80080025D08080083120313DD005A08DB0061
:1003E8005D08113E8400831300085D07DC005C088B
:1003F80084005B0880000130DB005D08113E84004A
:100408005B0880070130DB005D08123E84005B0852
:1004180080075D08113E84000008103A031D08009B
:100428005D08113E840080010800F5007508103E43
:100438008400831300087507F00070088400000822
:10044800F100F2017108F3007208F4000130F000C5
:100458007508103E8400700880077508103E8400F7
:100468000008103A031D3C2A7508103E84008001DC
:100478007508123E84000130800273080800F300FA
:100488007008F1007308113E840083130008730795
:10049800F20072088400710880000130F1007308CE
:1004A800113E8400710880070130F1007308123E84
:1004B8008400710880077308113E84000008103A10
:1004C800031D08007308113E84008001080083138F
:1004D800203084004F300A128A1101230A128A112F
:1004E8000A128A110F230A128A11E1000A128A11CC
:1004F80010230A128A11E2000A128A111123E3005A
:1005080083010A128A11882A0A128A1165210A129D
:100518008A110A128A1115200A128A110A128A11DE
:100528009C200A128A118312031308142308220438
:10053800031D8D2A8830A2001330A3008D2A831250
:100548000313DF003C300A128A11CA220A128A11E8
:100558000038031D0800831203135F08DE005E08DD
:10056800DA003C300A128A11EF21080029300A12F9
:100578008A11D7220A128A110038031DC82A293085
:100588000A128A11C32108000030080083120313DD
:10059800DA005A08123E840083130008103A00302B
:1005A80003190130080083120313DA005A08123EB7
:1005B8008400831380080030031901300800F0001C
:1005C8007008123E840083130008103A00300319A3
:1005D80001300800F0007008123E84008313800880
:1005E800003003190130080029300A128A11D72275
:1005F800003A003003190130080064008001840AC1
:100608000406031900340406022B83120313B901EC
:0C061800BA01BB0108007B347A340034C6
:02400E007AFF37
:00000001FF
