:060000000A128A11122809
:10000800FE00030E83120313A1000408A2000A08CD
:10001800A3007F08A4000A128A158A2C0A128A15DE
:10002800052B003083160313DF000030DE0000309C
:10003800DD000030DC002808803AFF0081307F02B4
:10004800031D2828F43027020318ED280A128A1500
:1000580077220A128A11003A03190800043083161D
:1000680003133502031872280A128A1589220A1204
:100078008A1183120313260883160313DB01DB0797
:1000880083120313250883160313DA01DA075A08C3
:10009800D6005B08D7000030D71BFF30D800D90046
:1000A8002308803AFF005908803A7F02031D66281A
:1000B80058082202031D662857082102031D6628D6
:1000C800560820020318E6285A08A0005B08A10079
:1000D8000030A11BFF30A200A300E6280A128A15EF
:1000E80089220A128A11831203132508831603131F
:1000F800DC0083120313260883160313DD00003087
:10010800DD1BFF30DE00DF005F0883120313A80049
:10011800831603135E0883120313A70083160313C1
:100128005D0883120313A600831603135C08831269
:100138000313A500831603135F0883120313AC008F
:10014800831603135E0883120313AB00831603138D
:100158005D0883120313AA00831603135C08831235
:100168000313A9000A128A1507240A128A11831296
:100178000313250883160313A00783120313260805
:1001880003110318013E0319CC2883160313A10792
:1001980083120313270803110318013E0319D728F4
:1001A80083160313A20783120313280803110318E5
:1001B800013E0319E22883160313A30783120313CE
:1001C800831603130130A7070318A80A0030A807ED
:1001D800080004308316031335020318FF28350876
:1001E800D6005607E33E8400200883138000840A63
:1001F800210880007829230883120313AC00831692
:100208000313220883120313AB0083160313210878
:1002180083120313AA0083160313200883120313FF
:10022800A9000030A8000030A7000130A600F43073
:10023800A5000A128A1137260A128A11831203139B
:100248002808B7002708B6002608B5002508B40016
:100258000A128A1548240A128A11831203133408D1
:10026800C0003508C1003608C2000A128A11B72139
:100278000A128A11831203134008D9004108DA00D0
:100288004208DB00CD30D6004C30D7004030D800D3
:100298000A128A117F250A128A118312031356083B
:1002A800E6005708E7005808E8000A128A11B62441
:1002B8000A128A1183120313660883160313D600E1
:1002C8003508FC3EA43E8400560883138000350898
:1002D800FC3EA43E84004630000203187829350805
:1002E800FC3EA43E840080010030A3000030A20040
:1002F8000030A1000030A0000130D6005608B50734
:10030800073083120313A5000030A60083160313D9
:100318003508D600D701560883120313A7008316A1
:100328000313570883120313A8000A128A152125FC
:100338000A128A1183120313250883160313D8009F
:100348005808B500043035020318AC293508AF2920
:1003580083160313350A0A128A15F022831603132B
:10036800A701A8010800003083120313A50000307C
:10037800A6000030A7004008A8004108A9004208CC
:10038800AA000A128A1537270A128A11031CF029B3
:10039800831203134008A5004108A6004208A700DD
:1003A8000030A8000030A9000030AA000A128A15FF
:1003B80037270A128A110318E729213083160313F5
:1003C800B1000030B200003083120313C0000030C7
:1003D800C1000030C2000800831203134008CC009B
:1003E8004108CD004208CE00C830C3006E30C400BA
:1003F800BE30C5004009C6004109C7004209C8000F
:10040800C60A0319C70A0319C80A4608C3074708D2
:100418000318470F102A112AC40748080318480F61
:10042800162A172AC5074308D3004408D4004508EC
:10043800D50001300310D50CD40CD30CFF3E031D9E
:100448001E2A0030C3008030C4000030C5004308B5
:10045800CC024408031C440F322A332ACD02450833
:10046800031C450ACE020430C3004308CF005308DA
:10047800C9005408CA005508CB004C08AD004D0807
:10048800AE004E08AF005308B0005408B10055083C
:10049800B2000A128A11E3230A128A118312031383
:1004A8002D08D0002E08D1002F08D2005308AD0027
:1004B8005408AE005508AF005008B0005108B1000C
:1004C8005208B2000A128A11E3230A128A1183120F
:1004D80003132D08D0002E08D1002F08D20053088E
:1004E800AD005408AE005508AF005008B0005108E0
:1004F800B1005208B2000A128A11E3230A128A11C3
:10050800831203132D08D0002E08D1002F08D20023
:100518000030AD00C030AE003F30AF005308B0002F
:100528005408B1005508B2000A128A11E3230A12CE
:100538008A11831203132D08D3002E08D4002F0824
:10054800D5005008BA005108BB005208BC00530837
:10055800BD005408BE005508BF000A128A1535238D
:100568000A128A11831203133A08D3003B08D400F5
:100578003C08D5000130CF02031D3B2A4008AD00DE
:100588004108AE004208AF005308B0005408B1005B
:100598005508B2000A128A11E323831203132D08A7
:1005A800C0002E08C1002F08C200080083120313E0
:1005B8002D08B3002E08B4002F08B5000310340D21
:1005C800350DB6003608B9003008B3003108B4005C
:1005D8003208B5000310340D350DB6003608B800E2
:1005E80039080319032B3808390203180A2B390371
:1005F800FF3A3807B30019303302031C0A2B3008BE
:10060800AD003108AE003208AF0008003808031901
:100618000800390838020318192B3803FF3A39073C
:10062800B30019303302031808000630B30033084A
:10063800B700AF1BB717B21B3717AE17FF30AD05A2
:10064800FF30AE050030AF05B117FF30B005FF3001
:10065800B1050030B205380839020318592B0130AA
:100668000310B00DB10DB20DFF3E031D342B013048
:10067800B802380839060319542B0130B702370875
:1006880007390319542B332B01300310AF0CAE0C70
:10069800AD0CFF3E031D492B0130B3003308B907E9
:1006A800390838060319822B482B390838020318F1
:1006B800822B01300310AD0DAE0DAF0DFF3E031DB3
:1006C8005E2B0130B9023808390603197E2B013038
:1006D800B7023708073903197E2B5D2B0130031049
:1006E800B20CB10CB00CFF3E031D732B0130B300EC
:1006F8003308B80739083806031D722BB71F942B27
:10070800FF30AD06FF30AE06FF30AF060130AD0753
:10071800003003180130AE07003003180130AF076E
:10072800371FA62BFF30B006FF30B106FF30B206E8
:100738000130B007003003180130B107003003184A
:100748000130B207B7012D08B0072E0803110318AE
:100758002E0A031DB1072F08031103182F0A031DC2
:10076800B207B21FC92BFF30B006FF30B106FF3009
:10077800B2060130B007003003180130B10700306D
:1007880003180130B207B701B70A3008A5003108CD
:10079800A6003208A7003908B3003308A8003708B4
:1007A800B4003408A9000A128A1596278312031385
:1007B8002508AD002608AE002708AF000800831200
:1007C80003132D08B3002E08B4002F08B50003103A
:1007D800340D350DB6003608B700B708031DFB2BDE
:1007E8000030AD000030AE000030AF000800300827
:1007F800B3003108B4003208B5000310340D350DCC
:10080800B6003608BC00BC08031D112C0030AD0032
:100818000030AE000030AF0008003C087B3EB3005B
:100828003308B7072D08B3002E08B4002F08B50009
:1008380010300310B50CB40CB30CFF3E031D1D2C77
:100848003308B6003608BC003008B3003108B400DD
:100858003208B50010300310B50CB40CB30CFF3ED1
:10086800031D2F2C3308B6003608BC068030B300B1
:100878003308BC05AE17B117FF30B005FF30B1051E
:100888000030B2050030B8000030B9000030BA00BE
:100898000730B3003308BB002D1C602C3008B807A4
:1008A800310803110318310A031DB907320803116F
:1008B8000318320A031DBA0701300310AF0CAE0C3F
:1008C800AD0CFF3E031D612C01300310B00DB10DBE
:1008D800B20DFF3E031D692C0130BB02031D502CD5
:1008E8000930B3003308BB002D1C882C3008B8072A
:1008F800310803110318310A031DB907320803111F
:100908000318320A031DBA0701300310AF0CAE0CEE
:10091800AD0CFF3E031D892C01300310BA0CB90C35
:10092800B80CFF3E031D912C0130BB02031D782C2F
:100938003808A5003908A6003A08A7003708B30008
:100948003308A8003C08B4003408A9000A128A1524
:100958009627831203132508AD002608AE00270842
:10096800AF00080083120313660883160313CC0034
:1009780083120313670883160313CD00831203132E
:10098800680883160313CE0003104D0D4E0DCF00DB
:100998004F08D500D508031DDC2C00308312031343
:1009A800E9000030E8000030E7000030E600080009
:1009B8008312660883160313CC0083120313670897
:1009C80083160313CD0083120313680883160313D9
:1009D800CE0017300310CE0CCD0CCC0CFF3E031DFF
:1009E800EE2C4C08CF004F08D00083120313E717F2
:1009F800FF30E605FF30E7050030E8056608831696
:100A08000313D10083120313670883160313D2005C
:100A180083120313680883160313D300D4018E309E
:100A2800D502D51F392D5508803A8F3E0318272D3A
:100A3800003083120313E9000030E8000030E700BB
:100A48000030E60008000130031083160313D40CAD
:100A5800D30CD20CD10CFF3E031D282D0130CC0045
:100A68004C08D50703195A2D272D18305502031C99
:100A7800552D003083120313E9000030E8000030E0
:100A8800E7000030E6000800013083160313CC00AD
:100A98000310D10DD20DD30DD40DCC0B4C2D01303C
:100AA800D50283160313D508031D482D50080319D2
:100AB800682DD109D209D309D409D10A0319D20A58
:100AC8000319D30A0319D40A540883120313E9003B
:100AD80083160313530883120313E80083160313C2
:100AE800520883120313E700831603135108831275
:100AF8000313E6000800831203135908DC005A08A0
:100B0800DD005B08DE0003105D0D5E0DDF005F0891
:100B1800E400E408031D972D0030D6000030D7000C
:100B28000030D80008005608DC005708DD005808D7
:100B3800DE0003105D0D5E0DDF005F08E500E508CF
:100B4800031DAD2D0030D6000030D7000030D8008E
:100B580008000030E1000030E2000030E300893096
:100B68006507DC005C08E4025908DC005A08DD006F
:100B78005B08DE0010300310DE0CDD0CDC0CFF3EE1
:100B8800031DBF2D5C08DF005F08E5005608DC0088
:100B98005708DD005808DE0010300310DE0CDD0CAD
:100BA800DC0CFF3E031DD12D5C08DF005F08E50665
:100BB8008030DC005C08E505DA17FF30D905FF3026
:100BC800DA050030DB05D717FF30D605FF30D7052B
:100BD8000030D8051830DC005C08E0000130031054
:100BE800E10DE20DE30DFF3E031DF32D58085B02F6
:100BF800031D042E57085A02031D042E56085902D5
:100C0800031C112E5608D9025708031C570FDA0285
:100C18005808031C580ADB02611401300310D90D6F
:100C2800DA0DDB0DFF3E031D122E0130E002031D1D
:100C3800F22D6108A5006208A6006308A7006408F1
:100C4800DC005C08A8006508DD005D08A9000A1240
:100C58008A159627831203132508D6002608D7007D
:100C68002708D800080083120313AF01A81F492ED4
:100C7800A509A609A709A809A50A0319A60A031917
:100C8800A70A0319A80AAF01AF0AAC1F5A2EA9096F
:100C9800AA09AB09AC09A90A0319AA0A0319AB0ADC
:100CA8000319AC0A0130AD002D08AF060030B300BF
:100CB8000030B2000030B1000030B000280827042E
:100CC800260425040319AF2EAE01AE0AA81B7A2EFE
:100CD8000130AD000310A50DA60DA70DA80DAD0B95
:100CE8006E2E0130AD002D08AE076A2E0130AD0022
:100CF8000310B00DB10DB20DB30DAD0B7C2E28084D
:100D08002C02031D912E27082B02031D912E260865
:100D18002A02031D912E25082902031CA22E25084C
:100D2800A9022608031C260FAA022708031C270F5E
:100D3800AB022808031C280FAC0230140130031042
:100D4800A80CA70CA60CA50CFF3E031DA32E013072
:100D5800AE02031D7A2E2F080319BD2EB009B10962
:100D6800B209B309B00A0319B10A0319B20A03197F
:100D7800B30A3308A8003208A7003108A6003008D3
:100D8800A50008008316031361086004031D08000A
:100D9800FF3083120313AF002F0883160313E200FA
:100DA800FF300A128A156E230A128A11FF300A12BE
:100DB8008A156E230A128A118316031324080A124D
:100DC8008A156E230A128A118316031325080A123C
:100DD8008A156E230A128A118316031326080A122B
:100DE8008A156E230A128A118316031362080A12DF
:100DF8008A156E230A128A118316031364080A12CD
:100E08008A156E230A128A118316031363080A12BD
:100E18008A156E230A128A118316031366080A12AA
:100E28008A156E230A128A118316031365080A129B
:100E38008A156E230A128A118316031368080A1288
:100E48008A156E230A128A118316031367080A1279
:100E58008A156E230A128A11831603136A080A1266
:100E68008A156E230A128A118316031369080A1257
:100E78008A156E230A128A118316031329080A1287
:100E88008A156E230A128A11831603132A080A1276
:100E98008A156E23303083160313E0007530E100A5
:100EA80008008316031330082F04031DB72F88305A
:100EB800AF001330B000A12F0A128A151B230A12A3
:100EC8008A1183120313AF002F08B0003008F03ADC
:100ED800031D732F83160313B601B60AA12F8312BD
:100EE80030080F3A031DA12F0230AF002F088316D8
:100EF8000313B600A12FB701B70A1030AD00273091
:100F0800AE000A128A151B230A128A1183120313D0
:100F1800860083160313A02F0A128A151B230A12B0
:100F28008A11013A031D9D2F83160313B801B80ACD
:100F3800A02F83160313B801B6010A128A157B2263
:100F48000A128A1100380319B72F831603133608BB
:100F5800003A0319602F013A03197F2F033A031946
:100F6800902FA12FA12F831603133708013A031DD1
:100F780008002E082D04031D0800B701831203136F
:100F88008601080083120313A50024308316031377
:100F980098009030831203139800DB2F4030D72F2E
:100FA8006730D72F8130831603139900E72F8312F8
:100FB80025080A3A0319D22F1A3A0319D42F043AEA
:100FC8000319D62FE72F831603138C1683160317DE
:100FD800A001A101A20183160313C901CA01CB0113
:100FE800831203139901080064008001840A04062F
:080FF800031900340406F92F6F
:1014EE00831203136A080800B93083120313A50090
:1014FE000030A6000A128A15C922003A00300319DC
:10150E000130080083120313EA011E08A601A60784
:10151E00831603131E0883120313A501A5070800E3
:10152E000B1D9E2A7C0803199E2A0130FC02831291
:10153E0003130C1F0800EA01EA0A0C13080012300C
:10154E007007F20071080318013EF3007208840060
:10155E008317731C831380080030031901300800B1
:10156E0012307007F20071080318013EF300720882
:10157E0084008317731C83130008103A003003197C
:10158E00013008001230831203132507A700260826
:10159E000318013EA800270884008317281C831314
:1015AE008008003003190130080012308312031333
:1015BE002507A70026080318013EA8002708840067
:1015CE008317281C83130008103A003003190130CA
:1015DE00080083120313A700C730A50025089F0536
:1015EE002708A50002300310A50DFF3E031DFA2AA1
:1015FE000310250DA60026089F040800FC01EA0131
:10160E008313A0308400CC300A128A11F8270A12F4
:10161E008A15831790308400A3300A128A11F82796
:10162E0083010A128A158B2BB93083120313A5007E
:10163E000030A6000A128A15C9220A128A1500382D
:10164E00031D332BB93083120313A5000030A600FF
:10165E000A128A15D926080000300800803083123D
:10166E000313BC063D08AD003E08AE003F08AF00B8
:10167E003A08B0003B08B1003C08B2000A128A11C9
:10168E00DA22831203132D08BA002E08BB002F088E
:10169E00BC000800632BFC08031D0800FC01FC0ABB
:1016AE0083160313B301B30A0800831203131F1525
:1016BE0083160313B3010800831603133308003A8D
:1016CE000319522B013A03195C2B6D2B0800831260
:1016DE000313AE009030A5000130A6000A128A1541
:1016EE00DC220A128A150038031D0800903083127E
:1016FE000313A5000130A6002E08AD002D08A7008B
:10170E000A128A157D2608000A128A15CA230A12A1
:10171E008A150A128A1570250A128A150A128A115A
:10172E00C6260A128A150A128A1155270A128A1516
:10173E000A128A1551230A128A150A128A111520C5
:10174E000A128A15902B83120313A70027088316FB
:10175E0003138500073089008130831203139F0025
:10176E008030831603139F00831203132508A600EF
:10177E002608831603139F04831203130C13831678
:10178E0003130C1708008316031386018312031329
:10179E0086018316031388018312031388018316AF
:1017AE00031381018230831203138100E0308B001A
:1017BE000A300A128A11C6270A128A1583120313D7
:1017CE00A501FF300A128A15AA230A128A150030C3
:1017DE000A128A15F022033083120313A800280878
:1017EE0083160313E200E301E401E501E601E701DC
:1017FE00E801E901EA012030E0004E30E100080086
:10180E00003083120313B1000030B0000030AF007F
:10181E000030AE00251C272C2908AE072A0803111C
:10182E000318013E031DAF072B0803110318013ED9
:10183E00031DB0072C0803110318013E031DB10749
:10184E000130AD000310A90DAA0DAB0DAC0DAD0B03
:10185E00292C01300310A80CA70CA60CA50CFF3EDA
:10186E00031D312C2808270426042504031D112CE2
:10187E003108A8003008A7002F08A6002E08A500E2
:10188E00080083120313BB018E30B8003808BA006B
:10189E00B71F5E2CB409B509B609B709B40A031906
:1018AE00B50A0319B60A0319B70ABB01BB0AFF3002
:1018BE0037050319702C01300310B70CB60CB50C9C
:1018CE00B40CFF3E031D632C0130B8003808BA0774
:1018DE005E2C3408A5003508A6003608A7003A0885
:1018EE00B8003808A8003B08B9003908A9000A1248
:1018FE008A159627831203132508B4002608B5000F
:10190E002708B60008000A128A15D4240A128A156E
:10191E000A128A1597220A128A150B1DC72C0B1153
:10192E00823083120313A00020088107831603134D
:10193E002C082B040319A92C0130AB020030031C18
:10194E00AC03AC02610860040319B32C0130E00251
:10195E000030031CE103E10230082F040319BD2CF3
:10196E000130AF020030031CB003B0022E082D046C
:10197E000319C72C0130AD020030031CAE03AE02BA
:10198E00831203132408FF0023088A002208840010
:10199E00210E8300FE0E7E0E0900831203130C1E11
:1019AE00F72C83160313981CF72C831203130C12B7
:1019BE009030F0000130F1000A128A15A6220A12A8
:1019CE008A150038031DF72C9030F0000130F1001D
:1019DE000A128A1521260A128A15831203139900F8
:1019EE0083120313981C052D1A08FA007A08FB00BF
:1019FE001A08FA007A08FB00181218168C1E080036
:101A0E00B930F0000030F1000A128A15B7220A121E
:101A1E008A150038031D0800B930F0000030F100BF
:101A2E00831203131A08FA007A08F2000A128A15B2
:101A3E00C725080083120313AB01A81F2D2DA7097C
:101A4E00A809A70A0319A80AAB01AB0AA61F342DD1
:101A5E00A509A609A50A0319A60A2608250403192D
:101A6E00612DAA01AA0AA61B482D01300310A50D4F
:101A7E00A60DFF3E031D3D2D0130A9002908AA0722
:101A8E003A2D26082802031D4E2D25082702031C79
:101A9E00562D2508A7022608031CA803A80201300C
:101AAE000310A60CA50CFF3E031D572D0130AA02F4
:101ABE00031D482D2B080319692DA709A809A70A8C
:101ACE000319A80A2808A601A6072708A501A50735
:101ADE000800831603132C082B04031D0800B72DD2
:101AEE00D030AB000730AC008312031308148316FA
:101AFE000313B401B40A08008312031308108316EB
:101B0E00031338080319982DD030AB000730AC0002
:101B1E00023083120313A500250883160313B400A5
:101B2E0008001030AB002730AC00B4010800D030F4
:101B3E00AB000730AC008312031308140330A5006A
:101B4E00250883160313B40008001030AB002730AD
:101B5E00AC0083120313081083160313B40108009C
:101B6E003408003A0319772D013A0319832D033AED
:101B7E0003199E2D013A0319AC2DC62D080008003D
:101B8E007208F30011307007F40071080318013E5B
:101B9E00F500740884008317751C83130008700702
:101BAE00F60071080318013EF700760884008313CF
:101BBE0077188317730880000130F3001130700717
:101BCE00F40071080318013EF500740884008317B1
:101BDE00751C8313730880070130F30012307007F1
:101BEE00F40071080318013EF50074088400831791
:101BFE00751C83137308800711307007F30071088A
:101C0E000318013EF400730884008317741C8313B9
:101C1E000008103A031D080011307007F300710818
:101C2E000318013EF400730884008317741C831399
:101C3E008001080010307007F20071080318013E91
:101C4E00F300720884008317731C83130008700757
:101C5E00F40071080318013EF50074088400831720
:101C6E00751C83130008F600F7017608F800770854
:101C7E00F9000130F20010307007F30071080318FC
:101C8E00013EF400730884008317741C83137208DA
:101C9E00800710307007F20071080318013EF30040
:101CAE00720884008317731C83130008103A031DF7
:101CBE006D2E10307007F20071080318013EF3000C
:101CCE00720884008317731C83138001123070070F
:101CDE00F20071080318013EF300720884008317A6
:101CEE00731C8313013080027808080083120313DB
:101CFE002708A80011302507A90026080318013E61
:101D0E00AA002908840083172A1C831300082507BC
:101D1E00AB0026080318013EAC002B088400831389
:101D2E002C188317280880000130A80011302507D1
:101D3E00A90026080318013EAA002908840083176B
:101D4E002A1C8313280880070130A80012302507AB
:101D5E00A90026080318013EAA002908840083174B
:101D6E002A1C83132808800711302507A80026088F
:101D7E000318013EA900280884008317291C831329
:101D8E000008103A031D080011302507A800260888
:101D9E000318013EA900280884008317291C831309
:101DAE00800108001030831203132507A7002608B0
:101DBE000318013EA800270884008317281C8313EC
:101DCE0000082507A90026080318013EAA002908C5
:101DDE00840083172A1C83130008AB00AC012B0868
:101DEE00AD002C08AE000130A70010302507A8006A
:101DFE0026080318013EA900280884008317291C11
:101E0E0083132708800710302507A700260803181C
:101E1E00013EA800270884008317281C831300089E
:101E2E00103A031D272F10302507A7002608031888
:101E3E00013EA800270884008317281C8313800105
:101E4E0012302507A70026080318013EA800270810
:101E5E0084008317281C8313013080022D0808008C
:101E6E0083120313A71F602F0030AB000030AC00AD
:101E7E008030AD002509AE002609AF002709B0005D
:101E8E00AE0A0319AF0A0319B00A2E08AB072F08C2
:101E9E0003182F0F532F542FAC0730080318300F91
:101EAE00592F5A2FAD072B08A5002C08A6002D0878
:101EBE00A700AA1F872F0030AB000030AC00803087
:101ECE00AD002809AE002909AF002A09B000AE0AFC
:101EDE000319AF0A0319B00A2E08AB072F0803180F
:101EEE002F0F7A2F7B2FAC0730080318300F802F5F
:101EFE00812FAD072B08A8002C08A9002D08AA00D9
:101F0E008030A7068030AA062A082702031D080083
:101F1E0029082602031D080028082502080083123E
:101F2E00031328080319A02F270826042504031DD0
:101F3E00B32F0030A5000030A6000030A700080027
:101F4E000130AA002A08A80701300310A70CA60C1E
:101F5E00A50CFF3E031DAC2FFE3027050319CE2F17
:101F6E00A72F0130AA002A08A8070130A5070030C4
:101F7E0003180130A607003003180130A7070130FF
:101F8E000310A70CA60CA50CFF3E031DC72FFF3098
:101F9E0027050319DD2FB82F0130A80201300310D9
:101FAE00A50DA60DA70DFF3E031DD62FA61FD32FE1
:101FBE002818E72FFF30A5057F30A605FF30A705AF
:101FCE000310A80C2808AA00AB01AC0110300310B6
:101FDE00AA0DAB0DAC0DFF3E031DEE2F2A08A50476
:101FEE002B08A6042C08A704290803190800A71714
:021FFE000800D9
:02400E007AFF37
:00000001FF
