:060000000A128A11122809
:10000800FE00030EF9000408FA000A08FB00831238
:1000180003137F08FC000A128A11DE280A128A11CB
:10002800662A8312031350084F04031D0800FF308B
:100038000A128A11A0220A128A11FF300A128A11A2
:10004800A0220A128A118312031360080A128A1165
:10005800A0220A128A118312031361080A128A1154
:10006800A0220A128A118312031362080A128A1143
:10007800A0220A128A118312031351080A128A1144
:10008800A0220A128A118312031353080A128A1132
:10009800A0220A128A118312031352080A128A1123
:1000A800A0220A128A118312031355080A128A1110
:1000B800A0220A128A118312031354080A128A1101
:1000C800A0220A128A118312031357080A128A11EE
:1000D800A0220A128A118312031356080A128A11DF
:1000E800A0220A128A118312031359080A128A11CC
:1000F800A0220A128A118312031358080A128A11BD
:10010800A0220A128A118312031320080A128A11E4
:10011800A0220A128A118312031321080A128A11D3
:10012800A022303083120313CF007530D0000800AE
:10013800831203130C1EB92883160313981CB928BD
:10014800831203130C123C300A128A11EB220A1292
:100158008A110038031DB9283C300A128A1114226A
:100168000A128A11831203139900831203138C1E37
:100178000800981CC9281A08F6007608F7001A081B
:10018800F6007608F70018121816081029300A1217
:100198008A11E0220A128A110038031D080083120E
:1001A80003131A08F6007608F00029300A128A119B
:1001B8003E2208000B1D0D290B118230F80078082B
:1001C8008107230822040319EF280130A202003016
:1001D800031CA303A30250084F040319F928013094
:1001E800CF020030031CD003D002270826040319CD
:1001F80003290130A6020030031CA703A702250823
:10020800240403190D290130A4020030031CA5039E
:10021800A5020A128A119C200A128A117C088312EC
:100228000313FF007B088A007A088400790E830094
:10023800FE0E7E0E09008312031327082604031DF1
:100248004D298830A6001330A7000A128A11F5221A
:100258000A128A11003803194D290A128A11B72285
:100268000A128A1183120313A801A80AD030A40025
:100278000730A50008140A128A11B7220A128A1137
:100288008312031386000A128A1106230A128A119E
:100298002929831203132808013A031D0800250899
:1002A8002404031D0800A80186010810080083160D
:1002B800031386018312031386018316031388012F
:1002C800831203138801831603138101823083127A
:1002D80003138100E0308B000A30DA000030DB00C5
:1002E8000A128A118E210C3083120313DC005C0879
:1002F800D1003230D2000030D3002230D400003098
:10030800D500D601D701D801D9012030CF004E3011
:10031800D000080020308316031398009030831211
:1003280003139800A0290F309C2967309C2981303D
:10033800831603139900B12983125B08003A031945
:10034800A629B1295A080A3A031997291A3A03190A
:100358009929043A03199B29B129831603138C168A
:1003680083120313CC01CD01CE01B901BA01BB013F
:100378009901080083120313DF005F08103E840010
:10038800831300085F07DA005A0884000008DB00BE
:10039800DC015B08DD005C08DE000130DA005F0884
:1003A800103E84005A0880075F08103E8400000849
:1003B800103A031DE3295F08103E840080015F089E
:1003C800123E8400013080025D0808008312031386
:1003D800DD005A08DB005D08113E84008313000825
:1003E8005D07DC005C0884005B0880000130DB00EE
:1003F8005D08113E84005B0880070130DB005D0862
:10040800123E84005B0880075D08113E84000008E6
:10041800103A031D08005D08113E840080010800A1
:10042800F5007508103E8400831300087507F00076
:10043800700884000008F100F2017108F3007208E6
:10044800F4000130F0007508103E84007008800741
:100458007508103E84000008103A031D372A7508F5
:10046800103E840080017508123E8400013080022D
:1004780073080800F3007008F1007308113E840047
:10048800831300087307F200720884007108800063
:100498000130F1007308113E8400710880070130B3
:1004A800F1007308123E8400710880077308113E3A
:1004B80084000008103A031D08007308113E8400E8
:1004C800800108008313203084004F300A128A11FB
:1004D800FE220A128A110A128A110C230A128A11A0
:1004E800E0000A128A110D230A128A11E1000A1289
:1004F8008A110E23E20083010A128A11832A0A1242
:100508008A115B210A128A118312031308140A1232
:100518008A1115200A128A110A128A111F210A1239
:100528008A118312031323082204031D8B2A88309F
:10053800A2001330A3008B2A83120313DF003C3080
:100548000A128A11C7220A128A110038031D0800EC
:10055800831203135F08DE005E08DA003C300A12DB
:100568008A11EA21080029300A128A11D4220A12B3
:100578008A110038031DC52A29300A128A11BE21A2
:1005880008000030080083120313DA005A08123EEC
:10059800840083130008103A003003190130080062
:1005A80083120313DA005A08123E8400831380086A
:1005B8000030031901300800F0007008123E840072
:1005C80083130008103A0030031901300800F000C6
:1005D8007008123E8400831380080030031901302C
:1005E800080029300A128A11D422003A003003196F
:1005F8000130080064008001840A040603190034ED
:100608000406FF2A83120313B901BA01BB010800CB
:060618007B347A3400344B
:02400E007AFF37
:00000001FF
